{
  "abi": [
    {
      "inputs": [
        {
          "internalType": "address",
          "name": "_safeProxyFactory",
          "type": "address"
        },
        {
          "internalType": "address",
          "name": "_safeMasterCopy",
          "type": "address"
        }
      ],
      "stateMutability": "nonpayable",
      "type": "constructor"
    },
    {
      "inputs": [],
      "name": "CreateSafeWithProxyFailed",
      "type": "error"
    },
    {
      "anonymous": false,
      "inputs": [
        {
          "indexed": true,
          "internalType": "address",
          "name": "safe",
          "type": "address"
        },
        {
          "indexed": true,
          "internalType": "address",
          "name": "module",
          "type": "address"
        }
      ],
      "name": "GuardSet",
      "type": "event"
    },
    {
      "anonymous": false,
      "inputs": [
        {
          "indexed": true,
          "internalType": "address",
          "name": "safe",
          "type": "address"
        },
        {
          "indexed": true,
          "internalType": "address",
          "name": "module",
          "type": "address"
        }
      ],
      "name": "ModuleEnabled",
      "type": "event"
    },
    {
      "inputs": [],
      "name": "ENCODED_SIG_REMOVE_OWNER",
      "outputs": [
        {
          "internalType": "bytes4",
          "name": "",
          "type": "bytes4"
        }
      ],
      "stateMutability": "view",
      "type": "function"
    },
    {
      "inputs": [
        {
          "internalType": "bytes32",
          "name": "",
          "type": "bytes32"
        },
        {
          "internalType": "bool",
          "name": "",
          "type": "bool"
        }
      ],
      "name": "checkAfterExecution",
      "outputs": [],
      "stateMutability": "view",
      "type": "function"
    },
    {
      "inputs": [
        {
          "internalType": "address",
          "name": "",
          "type": "address"
        },
        {
          "internalType": "uint256",
          "name": "",
          "type": "uint256"
        },
        {
          "internalType": "bytes",
          "name": "data",
          "type": "bytes"
        },
        {
          "internalType": "enum Enum.Operation",
          "name": "",
          "type": "uint8"
        },
        {
          "internalType": "uint256",
          "name": "",
          "type": "uint256"
        },
        {
          "internalType": "uint256",
          "name": "",
          "type": "uint256"
        },
        {
          "internalType": "uint256",
          "name": "",
          "type": "uint256"
        },
        {
          "internalType": "address",
          "name": "",
          "type": "address"
        },
        {
          "internalType": "address payable",
          "name": "",
          "type": "address"
        },
        {
          "internalType": "bytes",
          "name": "",
          "type": "bytes"
        },
        {
          "internalType": "address",
          "name": "",
          "type": "address"
        }
      ],
      "name": "checkTransaction",
      "outputs": [],
      "stateMutability": "nonpayable",
      "type": "function"
    },
    {
      "inputs": [
        {
          "internalType": "address[]",
          "name": "owners",
          "type": "address[]"
        },
        {
          "internalType": "uint256",
          "name": "threshold",
          "type": "uint256"
        }
      ],
      "name": "createSafeProxy",
      "outputs": [
        {
          "internalType": "address",
          "name": "safe",
          "type": "address"
        }
      ],
      "stateMutability": "payable",
      "type": "function"
    },
    {
      "inputs": [
        {
          "internalType": "address",
          "name": "module",
          "type": "address"
        }
      ],
      "name": "enableModule",
      "outputs": [],
      "stateMutability": "nonpayable",
      "type": "function"
    },
    {
      "inputs": [
        {
          "internalType": "address",
          "name": "module",
          "type": "address"
        }
      ],
      "name": "internalEnableModule",
      "outputs": [],
      "stateMutability": "nonpayable",
      "type": "function"
    },
    {
      "inputs": [
        {
          "internalType": "address",
          "name": "guard",
          "type": "address"
        }
      ],
      "name": "internalSetGuard",
      "outputs": [],
      "stateMutability": "nonpayable",
      "type": "function"
    },
    {
      "inputs": [],
      "name": "safeMasterCopy",
      "outputs": [
        {
          "internalType": "address",
          "name": "",
          "type": "address"
        }
      ],
      "stateMutability": "view",
      "type": "function"
    },
    {
      "inputs": [],
      "name": "safeProxyFactory",
      "outputs": [
        {
          "internalType": "address",
          "name": "",
          "type": "address"
        }
      ],
      "stateMutability": "view",
      "type": "function"
    },
    {
      "inputs": [
        {
          "internalType": "address",
          "name": "guard",
          "type": "address"
        }
      ],
      "name": "setGuard",
      "outputs": [],
      "stateMutability": "nonpayable",
      "type": "function"
    }
  ],
  "bytecode": {
    "object": "0x608060405234801561001057600080fd5b50604051610ad1380380610ad183398101604081905261002f91610083565b600080546001600160a01b039384166001600160a01b0319909116179055600180546001600160a81b031916919092161790556100b6565b80516001600160a01b038116811461007e57600080fd5b919050565b6000806040838503121561009657600080fd5b61009f83610067565b91506100ad60208401610067565b90509250929050565b610a0c806100c56000396000f3fe6080604052600436106100915760003560e01c806375f0bb521161005957806375f0bb52146101485780639327136814610168578063b557d5e114610187578063e19a9dd9146101d4578063e4a1cc7d146101f457600080fd5b806316943cec1461009657806319964501146100c657806348d6e278146100e65780634bd8582c14610108578063610b592514610128575b600080fd5b6100a96100a4366004610593565b610214565b6040516001600160a01b0390911681526020015b60405180910390f35b3480156100d257600080fd5b506000546100a9906001600160a01b031681565b3480156100f257600080fd5b5061010661010136600461064b565b610389565b005b34801561011457600080fd5b5061010661012336600461064b565b6103e6565b34801561013457600080fd5b5061010661014336600461064b565b610412565b34801561015457600080fd5b50610106610163366004610737565b61044b565b34801561017457600080fd5b50610106610183366004610826565b5050565b34801561019357600080fd5b506101bb7ff8dc5dd91c83c64a09d4878e686963ef56fde408d6dfdfe8047e612cc3e3702b81565b6040516001600160e01b031990911681526020016100bd565b3480156101e057600080fd5b506101066101ef36600461064b565b6104eb565b34801561020057600080fd5b506001546100a9906001600160a01b031681565b604051306024820152600090819060440160408051601f198184030181529181526020820180516001600160e01b031663091adc4f60e31b1790525190915060009061028690869086903090869073f48f2b2d2a534e402487b3ee7c18c33aec0fe5e4908790819081906024016108a1565b60408051601f198184030181529181526020820180516001600160e01b031663b63e800d60e01b17905260005460015491516361b69abd60e01b81529293506001600160a01b039081169283926361b69abd926102ea92911690869060040161095d565b6020604051808303816000875af1925050508015610325575060408051601f3d908101601f1916820190925261032291810190610989565b60015b6103425760405163036fa64f60e11b815260040160405180910390fd5b6040516001600160a01b038216903480156108fc02916000818181858888f19350505050158015610377573d6000803e3d6000fd5b50935061038392505050565b92915050565b60405163e19a9dd960e01b81526001600160a01b0382166004820152309063e19a9dd9906024015b600060405180830381600087803b1580156103cb57600080fd5b505af11580156103df573d6000803e3d6000fd5b5050505050565b60405163610b592560e01b81526001600160a01b0382166004820152309063610b5925906024016103b1565b6040516001600160a01b0382169030907fa05fd23fb8e1c138e73b916ea82ed8f5a77a80a4aefb217defddec7508f6502290600090a350565b600154600160a01b900460ff166104dd5763f8dc5dd960e01b61046e8a8c6109a6565b6001600160e01b031916146104c95760405162461bcd60e51b815260206004820152601b60248201527f4f6e6c7920416c6c6f772072656d6f76654f776e65722063616c6c0000000000604482015260640160405180910390fd5b6001805460ff60a01b1916600160a01b1790555b505050505050505050505050565b6040516001600160a01b0382169030907f5633b9df808d55a69769d89c0514283f4c780e105ee369c011e698512021446390600090a350565b634e487b7160e01b600052604160045260246000fd5b604051601f8201601f1916810167ffffffffffffffff8111828210171561056357610563610524565b604052919050565b6001600160a01b038116811461058057600080fd5b50565b803561058e8161056b565b919050565b600080604083850312156105a657600080fd5b823567ffffffffffffffff808211156105be57600080fd5b818501915085601f8301126105d257600080fd5b81356020828211156105e6576105e6610524565b8160051b92506105f781840161053a565b828152928401810192818101908985111561061157600080fd5b948201945b8486101561063b578535935061062b8461056b565b8382529482019490820190610616565b9997909101359750505050505050565b60006020828403121561065d57600080fd5b81356106688161056b565b9392505050565b60008083601f84011261068157600080fd5b50813567ffffffffffffffff81111561069957600080fd5b6020830191508360208285010111156106b157600080fd5b9250929050565b80356002811061058e57600080fd5b600082601f8301126106d857600080fd5b813567ffffffffffffffff8111156106f2576106f2610524565b610705601f8201601f191660200161053a565b81815284602083860101111561071a57600080fd5b816020850160208301376000918101602001919091529392505050565b6000806000806000806000806000806000806101608d8f03121561075a57600080fd5b6107638d610583565b9b5060208d01359a5067ffffffffffffffff60408e0135111561078557600080fd5b6107958e60408f01358f0161066f565b909a5098506107a660608e016106b8565b975060808d0135965060a08d0135955060c08d013594506107c960e08e01610583565b93506107d86101008e01610583565b925067ffffffffffffffff6101208e013511156107f457600080fd5b6108058e6101208f01358f016106c7565b91506108146101408e01610583565b90509295989b509295989b509295989b565b6000806040838503121561083957600080fd5b823591506020830135801515811461085057600080fd5b809150509250929050565b6000815180845260005b8181101561088157602081850181015186830182015201610865565b506000602082860101526020601f19601f83011685010191505092915050565b6101008082528951908201819052600090610120830190602090818d01845b828110156108e55781516001600160a01b0316855293830193908301906001016108c0565b50505083018a90526001600160a01b0389166040840152828103606084015261090e818961085b565b91505061092660808301876001600160a01b03169052565b6001600160a01b03851660a08301528360c083015261095060e08301846001600160a01b03169052565b9998505050505050505050565b6001600160a01b03831681526040602082018190526000906109819083018461085b565b949350505050565b60006020828403121561099b57600080fd5b81516106688161056b565b6001600160e01b031981358181169160048510156109ce5780818660040360031b1b83161692505b50509291505056fea26469706673582212204ded5f7135b2c09d143c5758d6330c27454b434e41492feedcf95f48210b526164736f6c63430008110033",
    "linkReferences": {}
  },
  "methodIdentifiers": {
    "ENCODED_SIG_REMOVE_OWNER()": "b557d5e1",
    "checkAfterExecution(bytes32,bool)": "93271368",
    "checkTransaction(address,uint256,bytes,uint8,uint256,uint256,uint256,address,address,bytes,address)": "75f0bb52",
    "createSafeProxy(address[],uint256)": "16943cec",
    "enableModule(address)": "610b5925",
    "internalEnableModule(address)": "4bd8582c",
    "internalSetGuard(address)": "48d6e278",
    "safeMasterCopy()": "e4a1cc7d",
    "safeProxyFactory()": "19964501",
    "setGuard(address)": "e19a9dd9"
  },
  "id": 41
}