{
  "abi": [
    {
      "inputs": [
        {
          "internalType": "address",
          "name": "_safeProxyFactory",
          "type": "address"
        },
        {
          "internalType": "address",
          "name": "_safeMasterCopy",
          "type": "address"
        }
      ],
      "stateMutability": "nonpayable",
      "type": "constructor"
    },
    {
      "inputs": [],
      "name": "CreateSafeWithProxyFailed",
      "type": "error"
    },
    {
      "anonymous": false,
      "inputs": [
        {
          "indexed": true,
          "internalType": "address",
          "name": "safe",
          "type": "address"
        },
        {
          "indexed": true,
          "internalType": "address",
          "name": "module",
          "type": "address"
        }
      ],
      "name": "GuardSet",
      "type": "event"
    },
    {
      "anonymous": false,
      "inputs": [
        {
          "indexed": true,
          "internalType": "address",
          "name": "safe",
          "type": "address"
        },
        {
          "indexed": true,
          "internalType": "address",
          "name": "module",
          "type": "address"
        }
      ],
      "name": "ModuleEnabled",
      "type": "event"
    },
    {
      "inputs": [],
      "name": "ENCODED_SIG_REMOVE_OWNER",
      "outputs": [
        {
          "internalType": "bytes4",
          "name": "",
          "type": "bytes4"
        }
      ],
      "stateMutability": "view",
      "type": "function"
    },
    {
      "inputs": [
        {
          "internalType": "bytes32",
          "name": "",
          "type": "bytes32"
        },
        {
          "internalType": "bool",
          "name": "",
          "type": "bool"
        }
      ],
      "name": "checkAfterExecution",
      "outputs": [],
      "stateMutability": "view",
      "type": "function"
    },
    {
      "inputs": [
        {
          "internalType": "address",
          "name": "",
          "type": "address"
        },
        {
          "internalType": "uint256",
          "name": "",
          "type": "uint256"
        },
        {
          "internalType": "bytes",
          "name": "data",
          "type": "bytes"
        },
        {
          "internalType": "enum Enum.Operation",
          "name": "",
          "type": "uint8"
        },
        {
          "internalType": "uint256",
          "name": "",
          "type": "uint256"
        },
        {
          "internalType": "uint256",
          "name": "",
          "type": "uint256"
        },
        {
          "internalType": "uint256",
          "name": "",
          "type": "uint256"
        },
        {
          "internalType": "address",
          "name": "",
          "type": "address"
        },
        {
          "internalType": "address payable",
          "name": "",
          "type": "address"
        },
        {
          "internalType": "bytes",
          "name": "",
          "type": "bytes"
        },
        {
          "internalType": "address",
          "name": "",
          "type": "address"
        }
      ],
      "name": "checkTransaction",
      "outputs": [],
      "stateMutability": "nonpayable",
      "type": "function"
    },
    {
      "inputs": [
        {
          "internalType": "address[]",
          "name": "owners",
          "type": "address[]"
        },
        {
          "internalType": "uint256",
          "name": "threshold",
          "type": "uint256"
        },
        {
          "internalType": "address",
          "name": "tokenAddress",
          "type": "address"
        },
        {
          "internalType": "uint256",
          "name": "tokenAmount",
          "type": "uint256"
        }
      ],
      "name": "createSafeProxy",
      "outputs": [
        {
          "internalType": "address",
          "name": "safe",
          "type": "address"
        }
      ],
      "stateMutability": "payable",
      "type": "function"
    },
    {
      "inputs": [
        {
          "internalType": "address",
          "name": "module",
          "type": "address"
        }
      ],
      "name": "enableModule",
      "outputs": [],
      "stateMutability": "nonpayable",
      "type": "function"
    },
    {
      "inputs": [
        {
          "internalType": "address",
          "name": "module",
          "type": "address"
        }
      ],
      "name": "internalEnableModule",
      "outputs": [],
      "stateMutability": "nonpayable",
      "type": "function"
    },
    {
      "inputs": [
        {
          "internalType": "address",
          "name": "guard",
          "type": "address"
        }
      ],
      "name": "internalSetGuard",
      "outputs": [],
      "stateMutability": "nonpayable",
      "type": "function"
    },
    {
      "inputs": [],
      "name": "safeMasterCopy",
      "outputs": [
        {
          "internalType": "address",
          "name": "",
          "type": "address"
        }
      ],
      "stateMutability": "view",
      "type": "function"
    },
    {
      "inputs": [],
      "name": "safeProxyFactory",
      "outputs": [
        {
          "internalType": "address",
          "name": "",
          "type": "address"
        }
      ],
      "stateMutability": "view",
      "type": "function"
    },
    {
      "inputs": [
        {
          "internalType": "address",
          "name": "guard",
          "type": "address"
        }
      ],
      "name": "setGuard",
      "outputs": [],
      "stateMutability": "nonpayable",
      "type": "function"
    }
  ],
  "bytecode": {
    "object": "0x608060405234801561001057600080fd5b50604051610bf4380380610bf483398101604081905261002f91610083565b600080546001600160a01b039384166001600160a01b0319909116179055600180546001600160a81b031916919092161790556100b6565b80516001600160a01b038116811461007e57600080fd5b919050565b6000806040838503121561009657600080fd5b61009f83610067565b91506100ad60208401610067565b90509250929050565b610b2f806100c56000396000f3fe6080604052600436106100915760003560e01c806393271368116100595780639327136814610155578063b557d5e114610174578063d096356b146101c1578063e19a9dd9146101d4578063e4a1cc7d146101f457600080fd5b8063199645011461009657806348d6e278146100d35780634bd8582c146100f5578063610b59251461011557806375f0bb5214610135575b600080fd5b3480156100a257600080fd5b506000546100b6906001600160a01b031681565b6040516001600160a01b0390911681526020015b60405180910390f35b3480156100df57600080fd5b506100f36100ee366004610635565b610214565b005b34801561010157600080fd5b506100f3610110366004610635565b610271565b34801561012157600080fd5b506100f3610130366004610635565b61029d565b34801561014157600080fd5b506100f3610150366004610768565b6102d6565b34801561016157600080fd5b506100f3610170366004610865565b5050565b34801561018057600080fd5b506101a87ff8dc5dd91c83c64a09d4878e686963ef56fde408d6dfdfe8047e612cc3e3702b81565b6040516001600160e01b031990911681526020016100ca565b6100b66101cf366004610895565b610377565b3480156101e057600080fd5b506100f36101ef366004610635565b6105d4565b34801561020057600080fd5b506001546100b6906001600160a01b031681565b60405163e19a9dd960e01b81526001600160a01b0382166004820152309063e19a9dd9906024015b600060405180830381600087803b15801561025657600080fd5b505af115801561026a573d6000803e3d6000fd5b5050505050565b60405163610b592560e01b81526001600160a01b0382166004820152309063610b59259060240161023c565b6040516001600160a01b0382169030907fa05fd23fb8e1c138e73b916ea82ed8f5a77a80a4aefb217defddec7508f6502290600090a350565b600154600160a01b900460ff166103695763f8dc5dd960e01b6102f98a8c610969565b6001600160e01b031916146103555760405162461bcd60e51b815260206004820152601b60248201527f4f6e6c7920416c6c6f772072656d6f76654f776e65722063616c6c000000000060448201526064015b60405180910390fd5b6001805460ff60a01b1916600160a01b1790555b505050505050505050505050565b604051306024820152600090819060440160408051601f198184030181529181526020820180516001600160e01b031663091adc4f60e31b179052519091506000906103e990889088903090869073f48f2b2d2a534e402487b3ee7c18c33aec0fe5e4908790819081906024016109df565b60408051601f198184030181529181526020820180516001600160e01b031663b63e800d60e01b17905260005460015491516361b69abd60e01b81529293506001600160a01b039081169283926361b69abd9261044d929116908690600401610a9b565b6020604051808303816000875af1925050508015610488575060408051601f3d908101601f1916820190925261048591810190610abf565b60015b6104a55760405163036fa64f60e11b815260040160405180910390fd5b34156104e2576040516001600160a01b038216903480156108fc02916000818181858888f193505050501580156104e0573d6000803e3d6000fd5b505b6001600160a01b038716158015906104fa5750600086115b156105c1576040516323b872dd60e01b81523360048201526001600160a01b038281166024830152604482018890528891908216906323b872dd906064016020604051808303816000875af1158015610557573d6000803e3d6000fd5b505050506040513d601f19601f8201168201806040525081019061057b9190610adc565b6105bf5760405162461bcd60e51b8152602060048201526015602482015274115490cc8c081d1c985b9cd9995c8819985a5b1959605a1b604482015260640161034c565b505b93506105cc92505050565b949350505050565b6040516001600160a01b0382169030907f5633b9df808d55a69769d89c0514283f4c780e105ee369c011e698512021446390600090a350565b6001600160a01b038116811461062257600080fd5b50565b80356106308161060d565b919050565b60006020828403121561064757600080fd5b81356106528161060d565b9392505050565b60008083601f84011261066b57600080fd5b50813567ffffffffffffffff81111561068357600080fd5b60208301915083602082850101111561069b57600080fd5b9250929050565b80356002811061063057600080fd5b634e487b7160e01b600052604160045260246000fd5b604051601f8201601f1916810167ffffffffffffffff811182821017156106f0576106f06106b1565b604052919050565b600082601f83011261070957600080fd5b813567ffffffffffffffff811115610723576107236106b1565b610736601f8201601f19166020016106c7565b81815284602083860101111561074b57600080fd5b816020850160208301376000918101602001919091529392505050565b6000806000806000806000806000806000806101608d8f03121561078b57600080fd5b6107948d610625565b9b5060208d01359a5067ffffffffffffffff60408e013511156107b657600080fd5b6107c68e60408f01358f01610659565b909a5098506107d760608e016106a2565b975060808d0135965060a08d0135955060c08d013594506107fa60e08e01610625565b93506108096101008e01610625565b925067ffffffffffffffff6101208e0135111561082557600080fd5b6108368e6101208f01358f016106f8565b91506108456101408e01610625565b90509295989b509295989b509295989b565b801515811461062257600080fd5b6000806040838503121561087857600080fd5b82359150602083013561088a81610857565b809150509250929050565b600080600080608085870312156108ab57600080fd5b843567ffffffffffffffff808211156108c357600080fd5b818701915087601f8301126108d757600080fd5b81356020828211156108eb576108eb6106b1565b8160051b92506108fc8184016106c7565b828152928401810192818101908b85111561091657600080fd5b948201945b8486101561094057853593506109308461060d565b838252948201949082019061091b565b9850508801359550610959925050604087019050610625565b9396929550929360600135925050565b6001600160e01b031981358181169160048510156109915780818660040360031b1b83161692505b505092915050565b6000815180845260005b818110156109bf576020818501810151868301820152016109a3565b506000602082860101526020601f19601f83011685010191505092915050565b6101008082528951908201819052600090610120830190602090818d01845b82811015610a235781516001600160a01b0316855293830193908301906001016109fe565b50505083018a90526001600160a01b03891660408401528281036060840152610a4c8189610999565b915050610a6460808301876001600160a01b03169052565b6001600160a01b03851660a08301528360c0830152610a8e60e08301846001600160a01b03169052565b9998505050505050505050565b6001600160a01b03831681526040602082018190526000906105cc90830184610999565b600060208284031215610ad157600080fd5b81516106528161060d565b600060208284031215610aee57600080fd5b81516106528161085756fea26469706673582212201af2630d9513236b4bc73d4216de843b8f1351e4e7a80bcefd830c9a2b4c16d164736f6c63430008110033",
    "linkReferences": {}
  },
  "methodIdentifiers": {
    "ENCODED_SIG_REMOVE_OWNER()": "b557d5e1",
    "checkAfterExecution(bytes32,bool)": "93271368",
    "checkTransaction(address,uint256,bytes,uint8,uint256,uint256,uint256,address,address,bytes,address)": "75f0bb52",
    "createSafeProxy(address[],uint256,address,uint256)": "d096356b",
    "enableModule(address)": "610b5925",
    "internalEnableModule(address)": "4bd8582c",
    "internalSetGuard(address)": "48d6e278",
    "safeMasterCopy()": "e4a1cc7d",
    "safeProxyFactory()": "19964501",
    "setGuard(address)": "e19a9dd9"
  },
  "id": 42
}